:020000040800F2
:1000000040060020A90100080F2A0008631F00080D
:100010000D2A0008150900088931000800000000B9
:10002000000000000000000000000000E12A0008BD
:100030005509000800000000112A0008E32A000802
:10004000C3010008C3010008C3010008C301000880
:10005000C3010008C3010008C3010008C301000870
:10006000C3010008C3010008C3010008C301000860
:10007000C3010008C3010008C3010008C301000850
:10008000C3010008C3010008C3010008000000000C
:10009000000000000000000000000000C301000894
:1000A000C3010008C3010008C12B0008C3010008F8
:1000B000C3010008C3010008C3010008711F000844
:1000C000651F0008C3010008C3010008C301000840
:1000D000C3010008C3010008C301000800000000BC
:1000E000C3010008C3010008C301000800000000AC
:1000F000000000000000000000000000C301000834
:1001000000000000C3010008C3010008C30100088B
:1001100000000000000000000000000000000000DF
:10012000C3010008C3010008C3010008C30100089F
:10013000C3010008000000000000000000000000F3
:10014000000000000000000000000000C3010008E3
:10015000C3010008C3010008C3010008C30100086F
:10016000C3010008C30100080000000000000000F7
:10017000000000000000000000000000000000007F
:1001800000000000C30100080000000000000000A3
:10019000C3010008DFF80CD000F04AFB004800471C
:1001A0008145000840060020064880470648004771
:1001B000FEE7FEE7FEE7FEE7FEE7FEE7FEE7FEE717
:1001C000FEE7FEE76D2B0008950100082DE9F05FC2
:1001D0000546002092469B468846064681464024B6
:1001E0001BE0284641464746224600F0FEF85346AB
:1001F0005A46C01A914110D311461846224600F0C3
:10020000E5F82D1A67EB01084F4622460120002130
:1002100000F0DCF817EB00094E41201EA4F10104A8
:10022000DFDC484631462A464346BDE8F09F2DE9CB
:10023000FE4F81EA030404F0004421F000410094E1
:100240004FF0000B23F0004350EA01045ED052EA65
:1002500003045BD0C3F30A54C1F30A552C44A4F23F
:10026000F3340194A0FB0254C1F3130141F4801153
:10027000C3F3130343F4801301FB024400FB034E5A
:10028000840A970A44EA815447EA8357A4FB076823
:1002900002958D0A05FB07854FEA932C04FB0C544D
:1002A0002705029D4FEA065847EA1637B5EB0805C1
:1002B0006EEB070C870E920E47EA811742EA831213
:1002C000A7FB0201B6EB0B0164EB00042B0D43EA24
:1002D0000C335E1844EB1C50DA465146E7FB020132
:1002E000C5F313044FEA0B3343EA14534FEA0432C5
:1002F000019C43EA0603A4F10C040294009CCDE99E
:1003000000B400F0C8F803B0BDE8F08F002001464B
:10031000F9E700F0004230F000400AD0C10D01F5CD
:100320006071C0F3160042EA0151C2084007114350
:10033000704700200146704730B5041E71F100047B
:1003400004DB4FF00044404264EB0101141E73F1E2
:10035000000405DB1C464FF00043524263EB0403EC
:10036000994208BF904230BD01F0004330B421F003
:10037000004150EA010206D00A0DA2F56072C1F3F5
:100380001301002A02DC30BC00207047440F44EA0D
:10039000C104C100E01830BC00EBC25000F035B819
:1003A00030B50B46014600202022012409E021FA45
:1003B00002F59D4205D303FA02F5491B04FA02F542
:1003C0002844151EA2F10102F1DC30BD202A04DB15
:1003D000203A00FA02F1002070479140C2F1200358
:1003E00020FA03F3194390407047202A04DB203A97
:1003F00021FA02F00021704721FA02F3D040C2F145
:10040000200291400843194670470029A8BF704751
:10041000401C490008BF20F00100704710B4B0FA3A
:1004200080FC00FA0CF050EA010404BF10BC7047D5
:1004300049B1CCF1200421FA04F411FA0CF118BFEF
:10044000012121430843A3EB0C01CB1D4FEA0061BE
:100450004FEA102042BF002010BC704700EBC35091
:1004600010440029A4BF10BC7047401C490008BFBD
:1004700020F0010010BC704710B5141E73F1000489
:1004800008DA401C41F1000192185B411A4301D186
:1004900020F0010010BD2DE9F04D92469B4611B1B0
:1004A000B1FA81F202E0B0FA80F220329046FFF712
:1004B0008DFF04460F4640EA0A0041EA0B0153460D
:1004C0005A46084313D0114653EA010019D0C8F127
:1004D00040025046FFF789FF05460E4650465946F2
:1004E0004246FFF773FF084305D0012004E0204691
:1004F0003946BDE8F08D0020054346EAE0762C43FE
:1005000037430A986305E40AA0EB08000022FD0ABD
:1005100044EA47540A3002D500200146E9E70105C4
:1005200010196941DDE9084500196941BDE8F04D40
:10053000A2E72DE9FE4F804681EA0300C00F0C467A
:10054000009021F0004123F00045B8EB0200A941E2
:1005500005D24046214690461C460B46024623F0F3
:100560000040104347D0270DC7F30A00C3F30A51D8
:100570000290401A019040286BDAC3F3130040F454
:10058000801B0098924620B10023D2EB030A63EB54
:100590000B0B01985946C0F140025046FFF716FF79
:1005A00006460D4650465946019A00F053F910EBA5
:1005B00008006141002487EA115284EAE7731A4374
:1005C00040D0009A62B3019A012A4FEA075215DC23
:1005D000001B61EB02014FF0004202EA0752CDE935
:1005E0000042001C41F5801132462B46FFF753FFB5
:1005F00003B0BDE8F08F40462146F9E7001B61EBF0
:100600000201001C41F5801300185B412018A2F57F
:10061000001747EB030140EAD570B6196D4111E0B0
:100620006D084FEA360645EAC0754FEA0752001BCF
:1006300061EB0201001C41F5801149084FEA3000CE
:100640000019514132462B4603B0BDE8F04FFFF789
:1006500013BF0098012240000023D0EB020263EB9D
:10066000E073009821464FEAE074B8EB000061EBBC
:100670000401E9E783F000435BE781F0004158E7BC
:100680002DE9F04D81EA030404F0004B21F0004510
:1006900014464FF0000A23F0004150EA050220D032
:1006A00054EA01021DD0C5F30A570246C5F31303ED
:1006B000C1F31300C1F30A5640F4801543F48013CC
:1006C000A7EB0608101BD64608F2FD3873EB0500B1
:1006D00002D308F1010801E092185B41B8F1000F64
:1006E00003DA00200146BDE8F08D00204FF48011B0
:1006F000064684460EE0171B73EB050705D3121B55
:1007000063EB050306434CEA010C49084FEA30004D
:1007100092185B4150EA0107EDD152EA030012D072
:1007200082EA040083EA0501084305D0101BAB41AF
:1007300006D20122002306E000224FF0004302E02F
:100740006FF0010253101AEB06004CEB085110EB4E
:100750000A0041EB0B01BDE8F04DFFF78DBE2DE91E
:10076000F04D00231A461B1A8A4103DB0020014684
:10077000BDE8F08DC1F30A52C1F3130141F48015B5
:100780004FF0000BD10702D100186D41521E002717
:10079000044640F2FF11384601EB620A3E468046AD
:1007A000024600204FF48011FFF71FFEC21971416D
:1007B000BB1846EB0100B4EB030C75EB000C04D343
:1007C000E41A65EB000517460E46241908F10100EE
:1007D0006D4180463428E3DDF91946EB0600091B1C
:1007E000A84103D24FF0FF32134601E00022134626
:1007F0001BEB070046EB0A51BDE8F04DFFF73CBE8E
:10080000C1F30A52C1F3130140F2FF3341F48011E6
:100810009A4202DA00200146704740F233439A427E
:10082000A2F2334202DC5242FFF7DFBDFFF7CEBD3A
:10083000064C074D06E0E06840F0010394E807002D
:1008400098471034AC42F6D3FFF7A8FC6C47000879
:100850008C470008202A06DBCB17203A41FA02F029
:1008600043EAE07306E041FA02F3D040C2F120020D
:1008700091400843194670472DE9F0470027234C63
:100880003E463D46012004F1200804F1400900BF26
:1008900004EB400234F8101022F8021C08EB40016F
:1008A00038F8102021F8022C39F8102009EB40010B
:1008B000401CC0B221F8022C1028E9D3002003F01C
:1008C00017FCE083012003F013FCA8F81E000220AF
:1008D00003F00EFCA9F81E00494600204FEA08026A
:1008E00034F910301F4432F910301E4431F9103001
:1008F000401CC0B21D441028F2D3054839110181B3
:100900003111418129118181BDE8F0871801002052
:1009100014000020FEE700000C4800B5026887B014
:10092000002142F004020260006800F0040005901B
:100930004FF40050CDE90001022002900320039003
:100940006946034800F00CF907B000BD303802409A
:1009500000080240704700000B4800B5016887B0EE
:1009600041F0010101600068694600F00100059056
:100970002020009001200190029002200390034863
:1009800000F0EEF807B000BD303802400000024031
:100990002DE9F0470027234C3E463D46012004F157
:1009A000200804F1400900BF04EB400234F81010A5
:1009B00022F8021C08EB400138F8102021F8022C24
:1009C00039F8102009EB4001401CC0B221F8022C7C
:1009D0001028E9D3002003F053FCE083012003F04A
:1009E0004FFCA8F81E00022003F04AFCA9F81E00E4
:1009F000494600204FEA080234F910301F4432F90A
:100A000010301E4431F91030401CC0B21D44102873
:100A1000F2D3054839114180311181802911C180FB
:100A2000BDE8F087780100201400002090F8351010
:100A3000022903D08021416501207047052180F8FB
:100A400035100068016821F0010101600020704745
:100A50002DE9F04FDFF8ECB000224FF001094FF024
:100A60000F0A00BF09FA02F401EA0403A34264D1A9
:100A7000066857000325BD40AE430660D60800EB6C
:100A80008607D7F820C056074FEAD6680AFA08F654
:100A90002CEA060CC7F820C08668AE43866046681C
:100AA000A6434660C468AC43C46022F003055D44BD
:100AB000D5F808689407270F0AFA07F4DFF888C00A
:100AC0002640604502D14FF0000C1DE0DFF87CC0ED
:100AD000604502D14FF0010C16E0DFF874C06045AC
:100AE00002D14FF0020C0FE0DFF868C0604502D180
:100AF0004FF0030C08E0DFF860C0604502D14FF012
:100B0000040C01E04FF0070C0CFA07FCB44514D1BB
:100B1000D5F80868A643C5F80868104C25689D43B9
:100B20002560241D25689D432560241D25689D435F
:100B30002560241D25689D432560521C102A91D3F1
:100B4000BDE8F08F00300140000002400004024088
:100B500000080240000C024000100240003C01402E
:100B60002DE9F84FDFF860B100224FF001084FF097
:100B7000030A4FF00F090BF1040E00BF0B6808FACF
:100B800002F42340A3426ED14D68022D01D0122DF4
:100B90000ED1D50800EB850CDCF820505607F70E77
:100BA00009FA07F6B5430E69BE402E43CCF8206023
:100BB000066855000F790AFA05FC07F0030726EAD4
:100BC0000C06AF40374307604E68012E05D0022E59
:100BD00003D0112E01D0122E0ED18668CF6826EADE
:100BE0000C06AF40374387604668A6430C79C4F3D0
:100BF0000014944034434460C6688C6826EA0C06AE
:100C0000AC403443C4604C68E40056D52F4C256892
:100C100045F480452560246822F0030504F48044EF
:100C200000942B4C2E19D6F8084895072F0F09FA77
:100C300007F5AC43274DA84201D1002515E0264D0C
:100C4000A84201D1012510E0244DA84201D102257E
:100C50000BE0234DA84201D1032506E0214DA84217
:100C600002D1042501E028E00725BD402543C6F850
:100C70000858DBF800405D464E689C43F60300D5FB
:100C80001C432C60DEF8004075464E689C43B6035A
:100C900000D51C432C600C4D08352C684E689C43D5
:100CA000F60200D51C432C60074D0C352C684E68AD
:100CB0009C43B60200D51C432C60521C102AFFF442
:100CC0005DAFBDE8F88F0000003C014044380240B1
:100CD00000300140000002400004024000080240D1
:100CE000000C02400010024042694A4042617047D5
:100CF00001480068704700000000002070477047FE
:100D000010B5040013D0242084F83D002068016849
:100D100021F001010160204600F0BEFB00202064AC
:100D200084F83D0044F8300FA073207310BD0120FB
:100D300010BD000070B504460068456946682D493D
:100D40000D4208D0F10506D5216C41F00101216466
:100D50006FF48071416115F4813F09D0F00507D52A
:100D6000206C40F00200206421686FF4007048613C
:100D700015F4823F28D0F00526D594F83E30628DD8
:100D800094F83D00216B202B08D13AB921280ED0D0
:100D900029280CD0282801D1212908D0206C40F026
:100DA0000400206494F83E00102804D008E0204697
:100DB00001F088FC08E02068016841F400710160DE
:100DC00021686FF48060486115F4843F09D0F00514
:100DD00007D5206C40F00800206421686FF40060A3
:100DE0004861206C002804D02046BDE8704001F026
:100DF000EDB870BD000101002DE9F05F0268044606
:100E0000D2F818805569566890F83E007449DFF8AA
:100E1000D0A1DFF8CCB1DFF8CC918F1C0AF17E0AAB
:100E20000BF13E0B102812D0402810D00D425BD0A1
:100E3000B00559D5936920460021DB435B0700D5F7
:100E400001219269D243120648D5828947E015F004
:100E5000011F05D0B00503D5204601F03DFB10E091
:100E60005F48801D054205D0B00503D5606CC0B257
:100E7000106106E00D4204D0B00502D5204601F015
:100E8000B1FA18EA090F14D015EA0A0F08D0700554
:100E900006D53D4206D12046BDE8F05F01F01EBAFE
:100EA0003D421FD0B0051DD52046BDE8F05F01F0E2
:100EB000D4B915EA0B0F08D0700506D53D4206D10E
:100EC0002046BDE8F05F01F086B93D420AD0B0058A
:100ED00008D52046BDE8F05F01F01EB9028B92B242
:100EE000FFF70DFFBDE8F09F3D480E30054206D0EC
:100EF000B00504D52046BDE8F05F01F025BC18EA36
:100F0000090F4FF0280134D015EA0A0F23D07005DD
:100F100021D53D4221D194F83D302046628D002AF2
:100F2000E0D0426A541C4462046812782261428D07
:100F3000521E4285428D002AD4D1292BD2D102687B
:100F4000536823F4806353602122026380F83D10CC
:100F500000F017FBC6E73D42C4D0B005C2D5608D96
:100F60000028BFD0606A411C616221680078086176
:100F700031E015EA0B0F22D0700520D53D4220D17B
:100F800094F83D302046648D002CABD01469426A41
:100F9000551C45621470428D521E4285428D002AB6
:100FA000A0D12A2B9ED10268536823F4806353603A
:100FB0002222026380F83D1000F0E2FA92E73D42FF
:100FC00090D0B0058ED5608D00288BD01169606AF5
:100FD000421C62620170608D401E608582E70000E5
:100FE0000200010004001000014902A002F0CEB886
:100FF0005446000825730D0A0000000090F83D00DB
:101000007047000070B5040004D094F83D0000253E
:1010100010B106E0012070BD84F83C50204600F07D
:101020005BFA242084F83D002068016821F001016A
:10103000016000F0CDFB33492268B0FBF1F1516053
:10104000314A6368934206D94FF4967359434FF47B
:101050007A73B1FBF3F12368491C1962616891420C
:101060000BD84900B0FBF1F2C2F30B02042A01D203
:10107000042019E0B0FBF1F016E0A3689BB301EB8C
:10108000C10202EB0112B0FBF2F242F480421205FF
:1010900030D04BB301EBC10202EB0111B0FBF1F018
:1010A00040F4804040F400402168C861D4E9070161
:1010B000084321680860D4E9031008432168886068
:1010C000D4E9050108432168C8602068016841F03F
:1010D000010101602564202084F83D00256384F827
:1010E0003E50002070BD00E006E001EB4102B0FB85
:1010F000F2F2CCE70120D7E701EB4101B0FBF1F0C0
:10110000D0E7000040420F00A086010070470000B9
:10111000014902A002F03AB80346000825730D0AFF
:1011200000000000014902A002F030B8E6450008C6
:1011300025730D0A00000000014902A002F026B844
:101140003A46000825730D0A00000000014902A07C
:1011500002F01CB82046000825730D0A00000000AC
:101160002DE9FF4F83B09A46DDE911879346044687
:10117000DDF84090FFF7BCFD054694F83D002028BF
:1011800074D11923012272492046009501F071FBA8
:101190000028F5D194F83C00012867D0012084F89C
:1011A0003C0020680168C90703D1016841F00101D2
:1011B00001602068016821F400610160222084F848
:1011C0003D00402084F83E0000262664C4F82490A8
:1011D000A4F82A805F48E062608D2085CDE9007523
:1011E00053465A462046049901F0A3F928B1206CD1
:1011F00084F83C60042843D076E0208DC8B10128F3
:1012000020D00228206823D0416980690090208D79
:1012100003286BD801282AD04F4902283B464FF0BB
:10122000000200955BD08846204601F022FBE8BB17
:1012300040E02068416981690091016841F40071D2
:10124000016076E02068016821F480610160F0E7C8
:10125000016821F4806101602068016841F4006147
:101260000160206841698069009062E06EE02A4672
:101270003946204601F072FB30B1206C202833D073
:10128000012007B0BDE8F08F206847E020680168C2
:1012900041F40071016020680169606A421C626269
:1012A0000170208D401E2085608D00E01CE0401EF6
:1012B0006085E9E72068016821F4806101602068A9
:1012C0000169606A421C62620170208D401E2085A7
:1012D000608D401E60853B460022414600952046B9
:1012E00001F0C7FA0028D1D00320CAE72A463946C0
:1012F000204601F033FB0028BFD120680169606AF5
:10130000421C62620170208D401E2085608D401E4F
:10131000608520684169C94349070AD40169606A48
:10132000421C62620170208D401E2085608D401E2F
:101330006085208D00287FF46AAF202084F83D006E
:1013400084F83E6084F83C6000209AE7022098E729
:10135000020010000000FFFF040001002DE9FF4F14
:1013600083B09A46DDE9118793460446DDF8409044
:10137000FFF7BEFC064694F83D0020287DD11923D6
:10138000012243492046009601F073FA00287CD1DF
:1013900094F83C00012878D0012084F83C002068B3
:1013A0000168C90703D1016841F0010101602068AB
:1013B000016821F400610160212084F83D00402093
:1013C00084F83E0000252564C4F82490A4F82A80FF
:1013D0003048E062608D2085CDE9007653465A465C
:1013E0002046049901F01EF980B3206C84F83C502B
:1013F000042848D008E032463946204601F0DFFA9A
:1014000030B1206C042839D0032007B0BDE8F08F3C
:10141000606A411C6162216800780861208D401E6D
:1014200080B22085618D491E618521684A69D24359
:1014300052070BD468B1606A421C6262007808618E
:10144000208D401E2085608D401E6085208D0028E7
:10145000D1D132463946204601F0E4F90028D0D1F6
:1014600054F83D0B016841F400710160202004F83C
:101470001E09E57765770020C7E706E02068016868
:1014800041F4007101600120BFE70220BDE70000C8
:10149000020010000000FFFF0D4810B5016841F484
:1014A00000110160016821F400110160094C8115EF
:1014B0002046FFF7CDFA61152046FFF7C9FA202034
:1014C00000F097F8BDE810401F2000F092B800002F
:1014D000203802400004024030B5274887B0016838
:1014E00041F002010160016801F00201059101680B
:1014F00041F0020101600068042400F00200059040
:101500004FF480700090122001900120029003207F
:10151000CDE90304194D69462846FFF721FBE00198
:101520000090694604942846FFF71AFB12481030D1
:10153000016841F400110160006800F4001005909A
:101540000D481038016841F400110160016821F470
:101550000011016001220021202000F069F8202004
:1015600000F058F8022200211F2000F061F81F202F
:1015700000F050F807B030BD30380240000402409F
:101580007047704702480168491C016070470000BD
:10159000000000200B4810B5016841F400710160A3
:1015A000016841F480610160016841F4807101606B
:1015B000032000F05DF80F2000F006F800F018F8A6
:1015C000002010BD003C024010B5044607484FF40F
:1015D0007A710068B0FBF1F000F0C2FA00222146F7
:1015E000501E00F025F8002010BD0000540000201F
:1015F000704700280DDB00F01F02012191404009D7
:10160000800000F1E020C0F88011BFF34F8FBFF3DE
:101610006F8F7047002809DB00F01F020121914005
:101620004009800000F1E020C0F800117047000080
:10163000F0B40E4B1B680C46C3F30223C3F107053D
:10164000042D00D90425191D072901D2002300E02B
:10165000DB1E012606FA05F1491E214099409E40F5
:10166000761E16403143F0BC01F0B8BD0CED00E031
:10167000064900F0070208684FF6FF03184040EAE9
:101680000220034A10430860704700000CED00E0A0
:101690000000FA052DE9F0470E46050065D0DFF899
:1016A0001481D8F80000F7B200F00F00B04207D262
:1016B00088F80070D8F8000000F00F00B04254D154
:1016C00028683D4C810712D5400703D5206840F4B7
:1016D000E05020602878000703D5206840F460407F
:1016E00020602068A96820F0F00008432060287876
:1016F000C0072DD0304968680839012812D0022867
:1017000013D0032811D00968890700292DDA216830
:1017100021F0030101432160FFF7EAFA814641F21B
:10172000883A0EE009688903EFE709688901ECE768
:10173000FFF7DEFAA0EB0901514502D90320BDE80D
:10174000F0872068696800F00C00B0EB810FEFD1E2
:10175000D8F80010404601F00F01B14207D90770D8
:10176000006800F00F00B04201D00120E7E72878C0
:10177000400705D52068E96820F4E0500843206060
:101780002878000706D52068296920F4604040EADF
:10179000C100206000F03CF82168084AC1F3031141
:1017A000515CC840064908600F20FFF70DFF00207C
:1017B000C5E70000003C0240083802406A460008C5
:1017C00054000020014800687047000054000020C9
:1017D0000448054900680968044AC1F38221515C44
:1017E000C840704754000020083802407A4600087C
:1017F0000448054900680968044AC1F34231515C54
:10180000C840704754000020083802407A4600085B
:10181000154810B5006810F00C02144813D04110A0
:10182000042A0FD0082A0ED10F4C241F22682368E7
:1018300002F03F025B0207D52068C0F38810A0FBCE
:10184000010106E0084610BD2168C1F38811A1FB23
:1018500000010023FEF7BAFC2168C1F30141491CD5
:101860004900B0FBF1F010BD083802400024F4003C
:101870002DE9F84F050071D0DFF8D0922878A9F152
:10188000040BC007ABF104044AD0D9F80010484655
:10189000C1F38101012908D00068C0F3810002284A
:1018A0000AD1DBF80000400206D52068800337D556
:1018B00068680028DFD033E06868B0F5803F10D05A
:1018C000B0F5A02F206810D020F480302060206870
:1018D00020F4802020606868A8B1FFF709FA064666
:1018E0000DE0206840F48030F4E740F48020206070
:1018F000F7E700BFFFF7FCF9801B642873D8206866
:101900008003F7D50CE0FFF7F3F9064605E000BFCA
:10191000FFF7EEF9801B6428F0D820688003F7D425
:1019200028788B4F80074FF0010A4FF000083DD513
:10193000D9F80010484611F00C0F08D00068C0F329
:10194000810002280BD1DBF80000400207D4206898
:10195000800715D5E868012800D111E0F3E0E868B8
:10196000B0B1C7F800A0FFF7C3F9064605E000BF15
:10197000FFF7BEF9801B022835D820688007F7D50D
:101980002068296920F0F80040EAC10020600DE0DD
:10199000C7F80080FFF7ACF9064604E0FFF7A8F9A6
:1019A000801B02281FD820688007F7D428780007FA
:1019B00024D56848696981B1C0F800A0FFF798F99B
:1019C000064604E0FFF794F9801B02280BD85F4815
:1019D0006C3000688007F5D510E0C0F80080FFF794
:1019E00087F9064605E074E0FFF782F9801B0228BC
:1019F0006FD856486C3000688007F5D428784007C7
:101A000053D552483830016841F080510160006878
:101A100000F0805000905048016841F480710160EE
:101A2000FFF766F9064604E0FFF762F9801B02281B
:101A30004FD849480068C005F6D5444EA8686836B6
:101A400001280FD00528306810D020F00100306048
:101A5000306820F004003060A868B8B1FFF748F99A
:101A600000900FE0306840F00100F4E740F004001F
:101A70003060F7E7FFF73CF90099411A41F28830EE
:101A8000814258D830688007F4D50EE0FFF730F96E
:101A9000009007E0FFF72CF90099411A41F28830D5
:101AA000814248D830688007F4D4A86990B3D9F847
:101AB0000010C1F38101022945D00228C7F86080D7
:101AC00003D0FFF715F9054638E0FFF711F9064690
:101AD00005E030E0FFF70CF9801B02282BD82068C6
:101AE0008001F7D4D5E907010843A96A1B4A4908D0
:101AF00002EB01416A6A41EA8211084395F82C1011
:101B000040EA0161CBF80010C7F860A0FFF7F0F8D9
:101B1000054606E015E000BFFFF7EAF8401B022883
:101B200009D820688001F7D50BE000BFFFF7E0F887
:101B3000401B022802D90320BDE8F88F20688001ED
:101B4000F4D40020F8E70120F6E70000083802404E
:101B500000004742800E4742007000400000FFFF37
:101B600010B5401EB0F1807F01D3012010BD4FF0B1
:101B7000E02460610F21601701F030FB0020A061BC
:101B800007202061002010BD7047704710B5040089
:101B900003D094F8390010B107E0012010BD0020F7
:101BA00084F83800204600F00DF8022084F839004F
:101BB000211D206801F00AF8012084F83900002076
:101BC00010BD0000094808B5016841F4802101609A
:101BD0000068002200F48020009003211A20FFF703
:101BE00027FDBDE808401A20FFF714BD4438024025
:101BF0000168CA6842F00102CA600068016841F0E9
:101C00000101016000207047704770B5044600680C
:101C100001694FF00005C943890715D4C168C9435C
:101C2000890711D4E91E01610120207620688069AE
:101C30008007204602D0FFF7E7FF04E000F098F8A5
:101C4000204600F096F8257620680169C9434907C7
:101C500017D4C168C943490713D46FF00401016167
:101C6000022020762068806910F4407F204602D050
:101C7000FFF7CAFF04E000F07BF8204600F079F897
:101C8000257620680169C943090716D4C168C9438C
:101C9000090712D46FF00801016104202076206842
:101CA000C0698007204602D0FFF7AEFF04E000F0D5
:101CB0005FF8204600F05DF8257620680169C94389
:101CC000C90617D4C168C943C90613D46FF01001FF
:101CD0000161082020762068C06910F4407F20460A
:101CE00002D0FFF791FF04E000F042F8204600F038
:101CF00040F8257620680169C943C90708D1C16841
:101D0000C943C90704D1891E0161204600F032F899
:101D100020680169C943090609D4C168C943090695
:101D200005D46FF0800101612046FFF72DFF206888
:101D30000169C943490609D4C168C943490605D4A4
:101D40006FF040010161204600F044F8206801690D
:101D5000C94389060BD4C168C943890607D46FF00B
:101D6000200101612046BDE87040FFF70EBF70BD45
:101D70007047704770B5114C00256088411C618028
:101D8000B0F57A7F0BD320210D48FEF7ADFFE26856
:101D90000C49501CE0600CA001F0F8F96580A088A7
:101DA000411CA18041F28831884204D3607818B187
:101DB00000206070A58070BD0120FAE704000020BB
:101DC00000000240C84500082573203A2025640A17
:101DD00000000000704770B5040004D094F839008A
:101DE000002510B106E0012070BD84F8385020466F
:101DF00000F022F8242084F839002068C16821F41A
:101E00000051C160204600F0C7FF2068016921F43D
:101E1000904101612068416921F02A0141612068F7
:101E2000C16841F40051C160E563202084F83900A5
:101E300084F83A00002070BD30B5194887B00168B9
:101E400041F001010160016801F0010105910168A3
:101E500041F001010160006800F0010005901048A8
:101E60001030016841F4003101600068012100F484
:101E700000300590042000900220CDE901010724E4
:101E8000CDE90304074D69462846FEF769FE0820A0
:101E90000090694604942846FEF762FE07B030BD04
:101EA00030380240000002402DE9F843044690F823
:101EB00039001F4616460D46202850D1A5B19EB1C7
:101EC00094F8380001284AD0012084F838004FF0F7
:101ED0000008C4F83C80212084F83900FEF708FF90
:101EE000A6848146E68426E00120BDE8F883E08CE4
:101EF000401EE084A0684B46B0F5805F4FF00002C2
:101F00004FF080012046009703D001F09BF8E8B91C
:101F10000DE001F097F8C8B928882168C0F30800DF
:101F20004860206908B16D1C05E0AD1C03E0216824
:101F300015F8010B4860E08C0028D8D14B460022F0
:101F400040212046009701F07DF808B10320CCE73E
:101F5000202084F8390084F838800020C5E702206A
:101F6000C3E7FEE70148FEF7E5BE0000D801002008
:101F70000148FEF741BF0000D801002010B5806B7A
:101F800001680A6822F480620A6000214185426B80
:101F90001165826B116590F83D302022602B80F82E
:101FA0003D2080F83E1007D001680A6822F0010247
:101FB0000A60FFF719F810BD016401680A6822F091
:101FC00001020A60FEF79AFE10BD000070B590F89D
:101FD0003D10044600252026006829292DD02A29F5
:101FE0002BD094F83D10602904D04168090501D434
:101FF00084F83D60256384F83E50016821F4006157
:10200000016020684168090537D5416821F4006105
:102010004160606B90F835203349012A12D0016588
:10202000606BFEF703FD38B32068016821F0010101
:10203000016084F83D60606B1CE02563282184F812
:102040003D10DAE7A06B0165A06BFEF7EFFC98B1DD
:1020500020684169C943490604D40169606A421C89
:10206000626201702068016821F00101016084F85A
:102070003D60A06B016D88470FE094F83D1060292A
:102080001DD04169C943490604D40169606A421CF4
:10209000626201702046FEF7A7FF94F83D002828F1
:1020A0000CD1206C400709D51048E062256384F804
:1020B0003D6084F83E502046FFF728F870BD84F854
:1020C0003D6025644169C943490604D40169606AD9
:1020D000421C626201702068016821F00101016008
:1020E0002046FEF70BFED8E77D1F00080000FFFF2B
:1020F00001684A69D24352050CD46FF480624A6188
:1021000004210164002140F8301F20224273017332
:10211000012070470020704710B5C26A438D0168E6
:10212000042B06D0438D032B08D0438D022B19D0EE
:102130000EE04A6822F480624A6008E04A6822F4AD
:1021400080624A6001680A6822F480620A6001685D
:102150000A69416A4B1C43620A70418D491E4185E0
:10216000002010BD022A2AD0012A28D00A6842F491
:1021700000720A6001680A69416A4B1C43620A7076
:10218000418D491E418501680A69416A4B1C4362C1
:102190000A70418D491E418501684A6822F44072E7
:1021A0004A60202180F83D100021016390F83E2014
:1021B00080F83E10402A0BD0FEF7AAFFD0E70A684D
:1021C00022F480620A6001680A6842F48072D0E7F3
:1021D000FEF7B2FFC4E710B590F83D10222937D1C1
:1021E000418D032911D901680A69416A4B1C436278
:1021F0000A70418D491E4185418D032928D100680F
:10220000416821F48061416022E0012900D0F9B9E0
:1022100001680A6822F480620A6001684A6822F450
:10222000E0624A6001680A69416A4B1C43620A70B5
:10223000418D491E4185202180F83D100021016318
:1022400090F83E2080F83E10402A03D0FEF760FF51
:10225000002010BDFEF770FFFAE710B5C26A90F8D3
:102260003D10212921D1418D49B1416A4A1C426268
:10227000026809781161418D491E418515E02023CE
:102280000021042A13D0082A11D012F5803F0ED065
:102290000268546824F4E06454601122026380F8F8
:1022A0003E1080F83D30FEF73DFF002010BD026873
:1022B000546824F4E06454600268146844F40074C0
:1022C0001460016380F83D3090F83E2080F83E10A5
:1022D000402AE8D1FEF73AFFE7E7000010B590F892
:1022E0003D1090F83E30C26A048D24B1212934D0CB
:1022F000402B30D074E02129FAD120230021042A78
:1023000013D0082A11D012F5803F0ED0026854680D
:1023100024F4E06454601122026380F83E1080F8D7
:102320003D3000BFFEF7FEFE5AE00268546824F418
:10233000E06454600268146844F40074146001633B
:1023400080F83D3090F83E2080F83E10402AE9D1D8
:10235000FEF7FCFE44E0222942D1418D21B190F8E4
:102360003E10402906D032E00068416821F48061C7
:10237000416035E0016D31B1016D012911D0016D70
:10238000022915D02CE0C16C0129816C02D0C1F367
:10239000072108E00268C9B21161016D891C01655D
:1023A0001EE0816CC9B202681161016D491CF6E73B
:1023B00090F83D10222904D090F83D10212906D034
:1023C0000EE00068016841F48071016008E0416A34
:1023D0004A1C4262026809781161418D491E41859B
:1023E000002010BD78B590F83E50C26A036B90F89B
:1023F0003D6000240168222E06D1066D0EB9402DE5
:1024000002D0056D25B107E048698869009058E061
:102410000569B5F5404F08D0458D55B3458D012D63
:102420000ED0428D022A37D04DE04A698A69009267
:102430000A6842F480720A60016D491C016540E03F
:1024400012F5803F09D0042A20D0082A1ED0122B72
:102450001CD0C26A022A08D113E00A6822F4806202
:102460000A6001684A68120503D50A6822F480628E
:102470000AE04A698A6900920A6842F400720A60B6
:102480001EE00A6842F480620A6015E00A6822F4DD
:1024900080620A600168ECE7C26A022A13D00A6807
:1024A00022F480620A6001680A6842F400620A60ED
:1024B00001684A6812050AD401684A69896900916D
:1024C0000465002078BD0A6842F48062EFE74A683C
:1024D00042F480524A60EFE790F83E10402909D05C
:1024E0000169B1F5804F10D0016D99B1016D0129DD
:1024F00015D01CE0016D19B9416C01F0FE0114E02A
:10250000416CC9B241F001010FE090F83D10212962
:10251000F6D1F1E7416CF02201F4407103E0416C27
:10252000F12201F4407142EAD111006801610020FA
:1025300070472DE9F84F0446006889460B9D0168F5
:102540009846174641F4806101602068016841F4B3
:102550008071016000954FF0011A0022514620461B
:102560000A9B00F086F9F0BB216809F0FE000861C3
:102570000AF1010B2B46594620460A9A00F0AAF9A7
:1025800018B1206C042812D03AE0206841698069B3
:1025900000902A4620460A9900F011FA50B1206CAA
:1025A00004282DD12068016841F4007101600120E8
:1025B000BDE8F88FFEB2B8F1010F09D02168380AE2
:1025C00008612A4620460A9900F0F9F90028E6D168
:1025D000206806612A4620460A9900F0F0F9002892
:1025E000DDD1206800E00BE0016841F480710160FA
:1025F00000950022514620460A9B00F03AF908B1A6
:102600000320D5E7216809F0FF0040F001000861D0
:102610002B46594620460A9A00F05CF90028B0D1B2
:10262000C6E700002DE9F843044600680D46DDE9E1
:10263000089701689846164641F4807101604B4640
:1026400000224FF001112046009700F012F9E8B97E
:10265000216805F0FE0008613B464A4618492046BD
:1026600000F038F928B1206C04280FD10120BDE812
:10267000F88320684169806900903A4649462046BF
:1026800000F09DF920B1206C042813D00320EEE760
:10269000F5B2B8F1010F09D02168300A08613A4655
:1026A0004946204600F08BF90028ECD120680561EE
:1026B0000020DCE72068016841F400710160D5E783
:1026C000020001002DE9F04190F83D40C26A00236C
:1026D0001C4F202601686FF48065042A01D0082A67
:1026E00001D1282C05D0212C17D04D610020BDE848
:1026F000F081C7624A6822F4E0624A6001684D6175
:1027000001680A6822F480620A60036380F83D6011
:1027100080F83E30FEF7FAFCE8E7C7622122026348
:1027200080F83D6080F83E304A6822F4E0624A60FA
:1027300001684D6101680A6822F480620A60FEF750
:1027400020FFD3E70000FFFF38B590F83D20016877
:102750004B6823F4E0634B60036800215C690094DC
:102760001C6844F001041C6003681C6824F4806445
:102770001C6003685C6824050BD590F83D40222C52
:102780002BD090F83D402A2C27D0446B24686468F5
:102790004485448DE4B15C69E443640707D41C6953
:1027A000436A5D1C45621C70438D5B1E4385036854
:1027B0005C69E443640607D41C69436A5D1C456296
:1027C0001C70438D5B1E4385036C43F0040303645C
:1027D000036C23B1FFF7FAFB1FE0846BD6E72023DD
:1027E000282A09D02A2A07D0292A05D0046B222CAE
:1027F0000CD0222A0AD010E0094AC262016380F894
:102800003D3080F83E10FEF781FC06E0016380F861
:102810003D3080F83E10FEF7B3FE002038BD0000CA
:102820000000FFFF70B516460D4604461AE020462C
:10283000FFF75EFC08B1012070BD681C12D025B105
:10284000FEF756FA801BA8420CD954F8400F40F00E
:10285000200044F8100900202060202161732073BB
:10286000032070BD20684069C0434007DFD40020CA
:1028700070BD2DE9F0471E4690460D460446C1F353
:102880000747DDF8209012E0701C10D02EB1FEF743
:102890002FFAA0EB0900B04209D9002044F8300F0C
:1028A00020216173A07320730320BDE8F0872068A6
:1028B000012F0AD0806925EA00000004000C06D030
:1028C00000214145E0D00020EFE74069F3E7012116
:1028D000F7E700002DE9F0479A4691460D46044679
:1028E00000264FF02008C1F307472AE0206840691E
:1028F000C043400512D42068016841F400710160B2
:1029000021686FF48060486104202064266384F8A5
:102910003D8084F83C600120BDE8F087B9F1FF3FBD
:102920000FD0B9F1000F05D0FEF7E2F9A0EB0A01D4
:10293000494506D944F8306F84F80D80267303208A
:10294000EAE72068012F07D0D0F8180025EA000038
:102950000004000CE0D0C9E74069F7E72DE9F04139
:10296000002590460E460446202721E04069C043DA
:10297000C0060CD421686FF01000486125642563FF
:1029800084F83D7084F83C500120BDE8F0812EB100
:10299000FEF7AEF9A0EB0800B04209D954F8400F99
:1029A00040F0200044F80409677025700320ECE72C
:1029B00020684169C9434906D8D40020E5E770B5CD
:1029C00016460D4604461AE02046FFF791FB08B173
:1029D000012070BD681C12D025B1FEF789F9801B5B
:1029E000A8420CD954F8400F40F0200044F81009D8
:1029F00000202060202161732073032070BD2068B7
:102A00004069C0430006DFD4002070BDFEE7704778
:102A10007047000010B52DED028BFEF769F91D4CD3
:102A2000A06001F085FCFDF727FFFDF7B1FF60789E
:102A30009FED198AA8B100F02DF9FEF759F9A168A8
:102A4000401A00EE100AF8EE400A80EE880A10EEF6
:102A5000100AFDF75EFC41EC100B10A053EC102B9C
:102A600012E0FEF745F9A168401A00EE100AF8EEF0
:102A7000400A80EE880A10EE100AFDF74AFC41EC8D
:102A8000100B10A053EC102BBDEC028BBDE81040D6
:102A900000F07CBB0400002000007A4447657420ED
:102AA000636F756E746572203A20202020202020EC
:102AB00020202020202025382E336C66206D730DB9
:102AC0000A00000047657420636F756E746572209C
:102AD0003A2025382E336C66206D730D0A000000F5
:102AE0007047FEF74FBD000030B51E4893B000247C
:102AF000016841F080510160006800F08050119041
:102B00001948016841F4404101600068022500F461
:102B100040401190012000904FF4A02001906805E2
:102B2000CDE90650082008904FF4A87009900420C1
:102B30000A9007200B906846FEF79AFE00B1FEE768
:102B40000F20CDE90C054FF48050CDE90E40052152
:102B50000CA81094FEF79EFD002800D0FEE713B0ED
:102B600030BD00004038024000700040104801684D
:102B700041F4700101600F48016841F001010160FA
:102B80000C4A00210832116002680B4B1A400260A7
:102B9000031D0A4A1A60026822F480220260054876
:102BA0000C30016002495806803908607047000007
:102BB00088ED00E000380240FFFFF6FE10300024F0
:102BC0000148FFF722B800009C000020F0B5026821
:102BD0001B4B1C4C9F031C4D1C4E984207D0B84207
:102BE00005D0A04203D0A84201D0B04204D122F0C7
:102BF000700C4A6842EA0C02984210D0B8420ED0DB
:102C0000A0420CD0A8420AD0B04208D0104CA0423A
:102C100005D0104CA04202D00F4CA04203D122F4A8
:102C20004074CA68224302608A68C2620A6882628B
:102C3000984201D10969016301214161F0BD0000A1
:102C4000000001400004004000080040000C00406B
:102C50000040014000440140004801400C4810B5CC
:102C60000A49016041F65731C1600B2141600021E2
:102C700001618160FEF78AFF00B1FEE70448FEF7BC
:102C8000B7FF002800D0FEE710BD0000004801405B
:102C90009C00002010B53D4C2DED048B608910FB8D
:102CA00000F1A08910FB001000EE100AB8EEC00A77
:102CB00010EE100AFDF72DFB41EC100B00F00CFCA0
:102CC00051EC100BFDF750FB08EE900A208910FB29
:102CD00000F1A08910FB001000EE100AB8EEC00A47
:102CE00010EE100AFDF715FB41EC100B00F0F4FBA1
:102CF00051EC100BFDF738FB08EE100AB4F9080090
:102D000000EE100AF8EEC00A80EEA80A10EE100AD3
:102D1000FDF7FFFA41EC100B00F072FA9FED1C9BDF
:102D200051EC100B53EC192BFDF781FAFDF71CFB4E
:102D30006061B4F90A0000EE100AF8EEC00A80EEF5
:102D4000880A10EE100AFDF7E4FA41EC100B00F0CF
:102D500057FA53EC192B51EC100BFDF768FAFDF7FD
:102D600003FB00EE100A04F1200184ED040AB4F91B
:102D7000020000EE900A081FF8EEE00AC4ED060A11
:102D8000BDEC048BBDE8104001F084BB14000020B2
:102D9000FBEB1516DCA54C402DE9F041044600681C
:102DA000016921F44052E168114301612168C8685A
:102DB00049F20C6290432369A268E5691A4363698A
:102DC0002B431A430243CA602168486920F44072C9
:102DD000A06910434861E1696425B1F5004F974847
:102DE000974A21684FF032083FD0914201D081428A
:102DF0007CD1FEF7FDFC00EBC00101EB0010616827
:102E00008900B0FBF1F6FEF7F3FC00EBC00101EB2B
:102E1000001061688900B0FBF1F0B0FBF5F06FF0D5
:102E20001801484306EB800108EB0110B0FBF5F0F8
:102E300000F0F006FEF7DCFC00EBC00101EB001037
:102E400061688900B0FBF1F0B0FBF5F006EB00160D
:102E5000FEF7CEFC00EBC00101EB001061688900B9
:102E6000B0FBF1F7FEF7C4FCD2E0914201D0814201
:102E70003DD1FEF7BDFC00EBC00101EB0010616825
:102E80004900B0FBF1F0B0FBF5F00601FEF7B0FC35
:102E900000EBC00101EB001061684900B0FBF1F7E5
:102EA000FEF7A6FC00EBC00101EB001061684900D1
:102EB000B0FBF1F0B0FBF5F06FF01801484307EB01
:102EC000800108EBC100B0FBF5F000F0F80006EB64
:102ED0004006FEF78DFC00EBC00101EB00106168BD
:102EE0004900B0FBF1F7FEF783FC3CE055E0FEF74C
:102EF0006FFC00EBC00101EB001061684900B0FB02
:102F0000F1F0B0FBF5F00601FEF762FC00EBC0014A
:102F100001EB001061684900B0FBF1F7FEF758FCC7
:102F200000EBC00101EB001061684900B0FBF1F05B
:102F3000B0FBF5F06FF01801484307EB800108EB98
:102F4000C100B0FBF5F000F0F80006EB4006FEF71C
:102F50003FFC00EBC00101EB001061684900B0FBD1
:102F6000F1F7FEF735FC00EBC00101EB00106168E2
:102F70004900B0FBF1F0B0FBF5F06FF018014843E9
:102F800007EB800108EBC100B0FBF5F000F0070093
:102F9000216830448860BDE8F081FEF719FC00EB41
:102FA000C00101EB001061688900B0FBF1F6FEF78B
:102FB0000FFC00EBC00101EB001061688900B0FB61
:102FC000F1F0B0FBF5F06FF01801484306EB80011B
:102FD00008EB0110B0FBF5F000F0F006FEF7F8FB8F
:102FE00000EBC00101EB001061688900B0FBF1F05B
:102FF000B0FBF5F006EB0016FEF7EAFB00EBC001B4
:1030000001EB001061688900B0FBF1F7FEF7E0FB0F
:1030100000EBC00101EB001061688900B0FBF1F02A
:10302000B0FBF5F06FF01801484307EB800108EBA7
:103030000110B0FBF5F000F00F00A9E7001401400B
:10304000001001402DE9F041984617460E4604460F
:10305000069D1DE0681C1BD02DB1FDF749FEA0EBBD
:103060000800A84214D92068C16821F4D071C16059
:103070002068416921F001014161202084F8390074
:1030800084F83A00002084F838000320BDE8F0817D
:103090002068006836EA000004D00020B842D9D089
:1030A0000020F3E70120F9E710B5184816490C2273
:1030B00001604FF4E131416000218160C160016134
:1030C000C0E90521C161FEF786FE00B1FEE71048A8
:1030D00000F05CF8FEF79CFB01460EA000F056F8ED
:1030E000FEF770FB014613A000F050F8FEF770FBEE
:1030F000014617A000F04AF8FEF77AFB0146BDE84A
:1031000010401AA000F042B800440040D80000204F
:103110002047000848414C5F5243435F4765745362
:103120007973436C6F636B46726571203D20256433
:103130000D0A000048414C5F5243435F47657448A5
:10314000434C4B46726571203D2025640D0A0000FA
:1031500048414C5F5243435F47657450434C4B3189
:1031600046726571203D2025640D0A0048414C5F80
:103170005243435F47657450434C4B32467265710E
:10318000203D2025640D0A00FEE700000FB4054B2A
:1031900010B503A9044A029800F04AFB10BC5DF880
:1031A00014FB00007D4400089400002003B4019843
:1031B0004100009850EAC12018BF04204A0D18BFF2
:1031C00040F0010040F2FF72B2EB515F08BF40F0E7
:1031D0000200012808BF052002B070470907090E48
:1031E000002804DB00F1E02080F80014704700F0B4
:1031F0000F0000F1E02080F8141D7047000000006F
:1032000070B59B482DED020B2DED068B079D25F02B
:103210000044A04218DC9748844202DC0AD1069898
:1032200040B19DED060BBDEC068B02B0BDE87040D1
:1032300000F00BBA002DCCBF9FED8F0B9FED900BD4
:10324000BDEC068B02B070BD8F48A04215DD8F48E3
:10325000A042D8BF4FF0FF3458DD9DED060B51EC76
:10326000100BFFF7A3FF042808BF00F0F9F99DED4C
:10327000060BBDEC068B02B070BD9DED060B51EC4C
:10328000100B01F0EFF8CDE9060181489FED828B2C
:10329000A0423CDD8248A0421FDD00249FED82ABAE
:1032A0009DED060B53EC1A2B51EC100BFDF741F979
:1032B0009DED060B41EC190B53EC1A2B51EC100B46
:1032C000FCF7B5FF53EC182BFDF7D4F953EC192B91
:1032D000FDF7D6F9CDE9060149E09DED060B012485
:1032E00053EC182B51EC100BFDF723F99DED060B59
:1032F00041EC190B53EC182B51EC100BFDF7BAF9FC
:1033000053EC192BFDF7BCF9CDE906012FE0684815
:10331000A0421FDD02249FED689B9DED060B53EC40
:10332000192B51EC100BFCF782FF53EC182BFDF717
:1033300000F99DED060B41EC180B53EC192B51ECE9
:10334000100BFDF797F953EC182BFDF799F9CDE920
:1033500006010CE09DED060B032453EC102B9FEDB2
:10336000580B51EC100BFDF78BF9CDE906019DEDE3
:10337000060B53EC102B51EC100BFCF758FF41ECF3
:10338000180B53EC182BFCF752FF41EC190B4E486D
:103390000621B0EE490AF0EE690A784400F0D9F847
:1033A00053EC182B51EC100BFCF741FF41EC180BC0
:1033B0004648B0EE490AF0EE690A0521784400F06B
:1033C000C8F853EC192B51EC100BFCF730FF41EC13
:1033D000100B51EC180B53EC102B002C0EDAFDF7F0
:1033E000A8F89DED061B53EC112BFCF720FF9DED7B
:1033F000061B53EC112BFDF740F935E0FDF799F86A
:103400009DED061B53EC112BFCF711FF41EC100B4B
:103410002F48784400EBC40090ED001B51EC100BDA
:1034200053EC112BFDF726F99DED061B53EC112BE8
:10343000FDF720F941EC100B2648784400EBC4005E
:1034400090ED001B51EC100B53EC112BFDF715F90F
:1034500041EC100B002DA2BFBDEC068B02B070BD7D
:1034600051EC100B81F0004141EC100B01E7000022
:10347000000010440000F07F182D4454FB21F93F58
:10348000182D4454FB21F9BF0000DC3F0000203E12
:103490000000F33F00000000000000000000F03FCB
:1034A0000000E63F000000000000000000000040B7
:1034B0000080034000000000000000000000F83F12
:1034C000000000000000F0BF5213000008130000CD
:1034D000921200004A12000000B52DED048BB0EEF0
:1034E000409AF0EE609A83B051EC190BFDF737F972
:1034F00041EC180B18EE100A18EE901A8DED008BA7
:10350000002818BF0120084320F00040C0F17F6070
:1035100000F1E040C00F14D019EE101A19EE900A15
:103520008DED009B002918BF0121084320F00040C9
:10353000C0F17F6000F1E040C00F04BF012000F047
:10354000AFF8B0EE480A03B0F0EE680ABDEC048BA9
:1035500000BD70B504462DED028B4D1E00EBC5007D
:10356000B0EE408AF0EE608A90ED000B35F0060078
:1035700017D053EC182B51EC100BFCF758FE41EC14
:10358000100B6D1E04EBC50090ED001B51EC100BF1
:1035900053EC112BFCF7CDFF41EC100B35F006007E
:1035A000E7D1022D36D0042D1CD0062D1CBFBDEC5A
:1035B000028B70BD53EC182B51EC100BFCF737FE4F
:1035C00094ED0A1B53EC112BFCF7B3FF53EC182BB3
:1035D000FCF72DFE94ED081B53EC112BFCF7A9FF13
:1035E00041EC100B53EC182B51EC100BFCF71FFEA9
:1035F00094ED061B53EC112BFCF79BFF53EC182B9F
:10360000FCF715FE94ED040B53EC102BFCF791FF27
:1036100041EC100B53EC182B51EC100BFCF707FE90
:1036200094ED021B53EC112BFCF783FF53EC182B8A
:10363000FCF7FDFD94ED001B53EC112BFCF779FF1B
:10364000BDEC028B41EC100B70BD10B553EC102B90
:1036500051EC100BFCF76DFF41EC100B10BD00009E
:103660009FED050B10B553EC102B51EC100BFCF734
:10367000DEFD41EC100B10BD00000000000000104A
:1036800002E008C8121F08C1002AFAD1704770472B
:10369000002001E001C1121F002AFBD17047000089
:1036A0000149086070470000980000202DE9FF5F85
:1036B00082B00021DDE90430020DDDF840B00343A3
:1036C00018D044F61050A2F2FF324243151411985C
:1036D00001281FD0A5EB0B00401C5FEA000A4FF049
:1036E00000064E4FDFF83891B046504615D5CAF166
:1036F000000413E0119801244AA3012801D16FEAC4
:103700000B010298119AC0E90031C0E9024206B0EB
:10371000BDE8F09FCBF10000DFE704460021404AFE
:10372000491842EB0450CDE9001012E0E00707D041
:1037300032463B4640464946FCF779FD804689467D
:1037400032463B4610461946FCF771FD06460F46C9
:103750006410002CEAD1DDE90401DDE90023BAF1AF
:10376000000F06DAFCF763FD42464B46FCF75FFDAF
:1037700005E0FCF785FF42464B46FCF781FF044617
:103780000E460022284BFCF7D7FD03D84FF0FF3040
:10379000014607E00022254B20463146FCF7C9FED2
:1037A000FDF72EF8102409E0002C0ADB0A22002382
:1037B000FCF70CFD039B30321A55641E50EA0102DF
:1037C000F2D1641C039AC4F111031444119A012A22
:1037D00003D0012208430DD10AE0084304D00020A1
:1037E0004FF0110B119072E7A3EB0B056D1E0DE06E
:1037F0005B4504DD4FF0000205F1010504E003DA4A
:103800004FF00002A5F10105002AECD002981199B1
:10381000C0E90231C0E9004579E70000000014402A
:103820000000F03F300000000000F0430000E03FE7
:103830002DE9FF4F95B09B468946064600250FE2CD
:10384000252877D100242746F84A0121059400E075
:10385000044316F8013F203B01FA03F01042F7D170
:1038600030782A2811D06FF02F033078A0F1300281
:10387000092A16D8059A44F0020402EB820203EBEF
:1038800042021044761C0590EFE759F8042B05928C
:10389000002A03DA504244F40054059044F0020434
:1038A000761C30782E2816D116F8010F44F0040447
:1038B0002A280DD06FF02F023078A0F13003092BA9
:1038C00009D807EB870302EB4303C718761CF3E71D
:1038D00059F8047B761C30786C280FD006DC4C2815
:1038E00017D068280DD06A2814D104E0742810D0AD
:1038F0007A280FD10DE044F400140AE044F4801457
:1039000001E044F440147278824202D104F580143C
:10391000761C761C307866280BD013DC582877D0BC
:1039200009DC002875D04528F6D04628F4D0472871
:103930001AD19DE118E0632835D0642879D0652834
:1039400012D195E1702873D008DC6728F1D069287E
:103950006FD06E280DD06F2806D1B5E073282CD01B
:10396000752875D0782874D05A46179990476D1CE1
:1039700075E1C4F30250022809D003280DD0D9F80C
:10398000001004280DD00D6009F1040967E1D9F891
:103990000010EA17C1E90052F6E7D9F800100D80CF
:1039A000F2E70D70F0E719F8041B8DF80010002005
:1039B0008DF80100EA46012003E059F804AB4FF00E
:1039C000FF3061074FF0000102D40DE008F1010162
:1039D0008846B9420FDA8045F8DB1AF8081000294A
:1039E000F4D108E008F1010188468142FADB1AF8B7
:1039F00008100029F6D105985B46A0EB0807214680
:103A00003846179A00F094FA284400EB080507E0BE
:103A10004DE029E10DE01AF8010B5A46179990473D
:103A2000B8F10108F7D25B4621463846179A13E1F0
:103A300042E00A220092C4F302524FF0000A022A26
:103A400008D059F804CB032A4FEAEC710AD00DE0F4
:103A500029E02AE009F1070121F00702F2E802C19A
:103A6000914609E00FFA8CFC4FEAEC71042A03D16D
:103A70004FFA8CFC4FEAEC71002907DA0A46002164
:103A8000DCF1000C61EB02012D2202E0220504D5DD
:103A90002B228DF80420012203E0E20701D020222E
:103AA000F7E7904659E00A2102E010220DE01021CC
:103AB0004FF0000A00910BE010224FF0000A44F092
:103AC00004040827009203E008224FF0000A009245
:103AD000C4F30252022A05D059F804CB0021032A6C
:103AE00008D009E009F1070121F00702F2E802C15C
:103AF000914605E01FFA8CFC042A01D10CF0FF0C62
:103B00004FF00008220728D5702806D0009B83F0CC
:103B1000100353EA0A0305D00EE040228DF804207A
:103B2000012208E05CEA010206D030228DF8042070
:103B30008DF8050002229046009B83F0080353EAAB
:103B40000A030AD15CEA010201D1620705D53022DD
:103B50008DF804204FF001087F1E582804D034A0AF
:103B600003900EA802900DE036A0F9E75346604698
:103B7000009AFCF72BFB84460398825C0298401E57
:103B8000029002705CEA0100F0D1029806A9081ABE
:103B900000F1200A600702D524F4803400E00127F8
:103BA000574502DDA7EB0A0000E0002000EB0A0108
:103BB000009005984144401A0590E00306D45B4606
:103BC0002146179A059800F0B3F90544002706E04E
:103BD00001A85A46C05D179990476D1C7F1C474548
:103BE000F6DBE0030CD55B462146179A059800F0FA
:103BF0009FF9054404E030205A46179990476D1C00
:103C00000099481E00900029F5DC08E0029802990E
:103C10005A460078491C0291179990476D1CBAF1D9
:103C20000001AAF1010AF1DC65E1000009280100A8
:103C30003031323334353637383961626364656622
:103C400000000000303132333435363738394142E4
:103C5000434445460000000000F058F90544761C36
:103C6000307800287FF4ECAD19B02846BDE8F08F1D
:103C7000620700D4062709F1070222F0070CFCE8CE
:103C80000223E14603F000485FEA080C02D00FF27D
:103C9000702C0DE05FEA045C02D50FF2682C07E09F
:103CA0005FEAC47C02D00FF2602C01E0AFF2700C2E
:103CB0004FF0FF3823F00043CDF850C065280CD0FA
:103CC00006DC452809D046281DD047283DD13DE0D7
:103CD000662818D067287ED138E00021112F01DB3B
:103CE000112000E0781CCDE9000106A90EA8FFF71D
:103CF000DDFCDDE90F010E9A03910021009207F12E
:103D0000010A04914DE04FF000400097CDE9011009
:103D100006A90EA8FFF7CAFCDDE90F0203920E9B6D
:103D200011990022DDF80CA00093049211B9791CBE
:103D300000EB010AB7EB0A0004D4C0F1FF3007F131
:103D4000010A0490AAEB0700019044E0012F00DA79
:103D500001270021112F01DD112000E03846CDE9B7
:103D6000000106A90EA8FFF7A1FCDDE90F010E9ADC
:103D70000391002104910092BA4621070CD40399C3
:103D8000514500DA8A46BAF1010F05DD009AAAF121
:103D90000101515C302908D0B84202DA10F1040F59
:103DA00006DA0121CDE9011015E0AAF10101E9E7E8
:103DB000002805DC049901440491AAEB000102E00B
:103DC000411C514500DD8A460499401A401C01906F
:103DD0004FF000400290200704D40198504501DBC9
:103DE000CDF8048000208DF84F0002980DF14F07A8
:103DF000B0F1004F25D02B200E9002984FF0020812
:103E000000280CDA404202902D200E9007E00A2193
:103E10000298FCF7C5FA3031029007F8011DB8F19D
:103E20000001A8F10108F2DC02980028EFD1791E08
:103E30000E980870307800F0200040F0450007F838
:103E4000020D12A8C01B00F107081498007800B1F9
:103E5000012000EB0A01019801EBE0710598414453
:103E6000401A401E0590E00306D45B462146179A8F
:103E7000059800F05DF805441498007818B15A468A
:103E8000179990476D1CE00324D55B462146179A8D
:103E9000059800F04DF805441CE00498002807DB65
:103EA000DDE90301884203DD0098405C179901E0D9
:103EB000179930205A469047049805F10105401C97
:103EC00004900198401E019004D12E205A46179963
:103ED00090476D1CBAF10001AAF1010ADDDC05E092
:103EE00017F8010B5A46179990476D1CB8F100015D
:103EF000A8F10108F4DC5B462146179A0598ABE669
:103F00002D0000002B000000200000002DE9F041F2
:103F1000044600251E461746880404D405E03946A9
:103F20002020B0476D1C641EF9D52846BDE8F081FD
:103F30002DE9F041044600251E469046C80301D5F0
:103F4000302700E02027880404D505E041463846A4
:103F5000B0476D1C641EF9D52846BDE8F08108B550
:103F60006B4601221221D62000F0CCF99DF800000A
:103F70006B4640F004008DF8000001221221D6208B
:103F800000F05AFA6B4601220A21D62000F0BAF955
:103F90009DF800006B4620F07F008DF800000122A4
:103FA0000A21D62000F048FA08BD000030B50024F0
:103FB0002DED028B87B09FED4A8A06AB01221E21B0
:103FC000D62000F09FF92046641CE4B21E2803D8D6
:103FD0009DF81800C007F0D006AB01221021D620B2
:103FE00000F090F99DF8180010F00C008DF8180002
:103FF0000ED004280AD0082802D00C2808D102E0EC
:104000009FED388A04E09FED388A01E09FED378A02
:1040100001AB01222921D62000F074F96B46012260
:104020002821D62000F06EF99DF800009DF80410BC
:1040300003AB40EA012005B201222B21D62000F07B
:1040400061F902AB01222A21D62000F05BF99DF82C
:1040500008009DF80C1005AB40EA012004B20122D3
:104060002D21D62000F04EF904AB01222C21D620C0
:1040700000F048F900EE105A9DF810009DF8141059
:10408000B8EEC00A40EA012003B220EE080ABDEEF5
:10409000C00A10EE100A01B2002000F079F900EE1B
:1040A000104AB8EEC00A20EE080ABDEEC00A10EEB3
:1040B000100A01B2012000F06BF900EE103AB8EEE0
:1040C000C00A20EE080ABDEEC00A10EE100A01B2C6
:1040D000022000F05DF907B0BDEC028B30BD00009E
:1040E00023DB793D23DBF93D23DB793E23DBF93EFE
:1040F000020009494FF0000008D0012A09D0022A25
:1041000003D1088A8988084400B2704788890988E1
:10411000F9E7C8894988F6E73800002030B500245F
:104120002DED028B87B09FED518A6B4601221E2137
:10413000D62000F0E7F8641CE4B21E2C03D89DF8EA
:1041400000008007F1D56B4601221121D62000F036
:10415000D9F89DF8000000F00E008DF8000004284A
:104160000AD001DC80B904E0082808D00C280BD163
:1041700008E09FED3F8A07E09FED3E8A04E09FED57
:104180003E8A01E09FED3D8A02AB01222321D62029
:1041900000F0B8F801AB01222221D62000F0B2F8DD
:1041A0009DF8080004AB000204B29DF8040001224F
:1041B00004432521D62000F0A5F803AB01222421D9
:1041C000D62000F09FF89DF8100006AB000205B263
:1041D0009DF80C00012205432721D62000F092F81B
:1041E00005AB01222621D62000F08CF800EE104A03
:1041F0009DF818004FF47A74B8EEC00A000203B2BA
:104200009DF8140020EE080A0343BDEEC00A10EE2C
:10421000100A00B290FBF4F001B2002000F0F4F8B4
:1042200000EE105AB8EEC00A20EE080ABDEEC00A31
:1042300010EE100A00B290FBF4F001B2012000F081
:10424000E3F800EE103AB8EEC00A20EE080ABDEE20
:10425000C00A10EE100A00B290FBF4F001B2022086
:1042600000F0D2F807B0BDEC028B30BD00008C40EE
:1042700000000C4100008C4100000C4200008C4208
:10428000020009494FF0000008D0012A09D0022A93
:1042900003D1C88A4989084400B27047488AC9884E
:1042A000F9E7888A0989F6E73800002010B5034845
:1042B000FCF726FDBDE8104000F002B8D801002050
:1042C00010B50D48FCF79AFE68B90B480B494160E0
:1042D000002181603321C1604FF4804101610849B0
:1042E0000160FCF78FFE0448FCF788FE202801D00F
:1042F000012010BD002010BDD8010020801A06004A
:10430000005400403EB5084CA469CDE900320A468D
:104310000146029401230548FCF722FF002802D041
:10432000FFF7C4FF01203EBD38000020D801002067
:1043300010B5FFF73BFEBDE81040FFF7EFBE08B534
:104340006B4601221021D620FFF7DCFF9DF800000C
:104350006B4620F0FC0040F080008DF80000012248
:104360001021D62000F068F86B4601221821D620D3
:10437000FFF7C8FF9DF800006B4640F038008DF84D
:10438000000001221821D62000F056F808BD0000D8
:10439000054A28B1012805D0022800D111827047B2
:1043A00091817047D18170473800002008B56B4675
:1043B00001220F21D620FFF7A5FF6B460122112114
:1043C000D620FFF79FFF9DF800006B4620F0FE000F
:1043D00040F080008DF8000001221121D62000F06D
:1043E0002BF86B4601221921D620FFF78BFF9DF891
:1043F00000006B4640F038008DF8000001221921C2
:10440000D62000F019F808BD054A28B1012805D0CA
:10441000022800D1D1827047518270479182704743
:104420003800002010B5FFF79AFDFFF7BFFFBDE889
:104430001040FFF784BF00003EB5084CA469CDE9E9
:1044400000320A460146029401230548FCF786FF24
:10445000002802D0FFF72AFF01203EBD38000020CF
:10446000D801002082B0CDE9000121F00040019088
:104470009DED000B02B051EC100B704713B54FF6D9
:10448000FF73012269460248FDF70EFD00981CBD2E
:10449000D8000020364A10B592ED024A02F12C03F2
:1044A000D2ED003A30EEC41ADFED324AD3ED011AF4
:1044B0009FED315A41EE243A93ED022A35EE611A0E
:1044C0002E4C71EE425AC4ED005AD3ED032AB1EEE0
:1044D000623A84ED013A84ED023A84ED035A93ED99
:1044E000001A43EE241A03EE242A05EEA41A45EE20
:1044F000242A70EE634AB6EE000AC2ED034A31EE9A
:10450000005A82ED041A82ED052A82ED065A81EEE8
:10451000053A82EE050AB0EE415A82ED073A03EE03
:10452000415A43EE243A82ED080A82ED091AC2ED9F
:104530000A1A83ED005AB0EE615A00EE412A03EEEA
:10454000615A00EE244A40EE612A83ED015A83ED60
:10455000022AC3ED032A30EEC40AC2ED003A82ED0E
:10456000024A82ED010AC0ED003A81ED000A10BD59
:10457000580000200AD7233C6F12033B2C02002076
:10458000FDF708F8FEF7B0FA0D480E490068B0FBD9
:10459000F1F0FDF7E5FA00221146501EFDF748F84C
:1045A000FEF782FDFEF75AFBFCF7D6F9FCF7B4F9EB
:1045B000FFF786FEFFF736FFFEF72CFAFCE7000058
:1045C0005400002040420F0048414C5F54494D5F69
:1045D000506572696F64456C617073656443616CAA
:1045E0006C6261636B0048414C5F4932435F4D61CF
:1045F00073746572547843706C7443616C6C62615F
:10460000636B0048414C5F4932435F4D6173746591
:1046100072527843706C7443616C6C6261636B00BE
:1046200048414C5F4932435F4D656D547843706C2F
:104630007443616C6C6261636B0048414C5F49324A
:10464000435F4D656D527843706C7443616C6C626E
:1046500061636B0048414C5F4932435F4572726F42
:104660007243616C6C6261636B00000000000000CB
:10467000000001020304060708090000000001020F
:1046800003040000000000004FBB610567ACDD3F84
:10469000182D4454FB21E93F9BF681D20B73EF3F69
:1046A000182D4454FB21F93FE2652F227F2B7A3CE1
:1046B000075C143326A6813CBDCBF07A8807703C9A
:1046C000075C143326A6913CC4EB98999999C9BF0D
:1046D000711623FEC671BCBF6D9A74AFF2B0B3BF42
:1046E0009AFDDE522DDEADBF2F6C6A2C44B4A2BF02
:1046F0000D5555555555D53FFF8300922449C23F6E
:104700006E204CC5CD45B73F513DD0A0660DB13FA1
:10471000EB0D76244B7BA93F11DA22E33AAD903FB3
:104720000D0A55415254205072696E7466204578C6
:10473000616D706C653A2072657461726765742092
:104740007468652043206C696272617279207072AE
:10475000696E74662066756E6374696F6E20746F1F
:104760002074686520554152540D0A008C4700089A
:10477000000000209C000000803600082848000847
:104780009C000020A40500009036000800000000F6
:104790000001000000000000000000000000000018
:1047A0000000000000000000000000000000000009
:1047B00000000000000000000000000000000000F9
:1047C00000000000000000000000000000000000E9
:1047D00000000000000000000000000000100000C9
:1047E0000024F400000000000000000000000000B1
:1047F00000000000000000000000000000000000B9
:1048000000000000000000000000000000000000A8
:104810000000803F00000000000000000000803F1A
:08482000000000000000000090
:040000050800019559
:00000001FF
